{
  "_format": "hh-sol-artifact-1",
  "contractName": "MultiSigEducationalNFT",
  "sourceName": "contracts/MultiSigEducationalNFT.sol",
  "abi": [
    {
      "inputs": [],
      "stateMutability": "nonpayable",
      "type": "constructor"
    },
    {
      "inputs": [],
      "name": "AccessControlBadConfirmation",
      "type": "error"
    },
    {
      "inputs": [
        {
          "internalType": "address",
          "name": "account",
          "type": "address"
        },
        {
          "internalType": "bytes32",
          "name": "neededRole",
          "type": "bytes32"
        }
      ],
      "name": "AccessControlUnauthorizedAccount",
      "type": "error"
    },
    {
      "inputs": [
        {
          "internalType": "address",
          "name": "sender",
          "type": "address"
        },
        {
          "internalType": "uint256",
          "name": "tokenId",
          "type": "uint256"
        },
        {
          "internalType": "address",
          "name": "owner",
          "type": "address"
        }
      ],
      "name": "ERC721IncorrectOwner",
      "type": "error"
    },
    {
      "inputs": [
        {
          "internalType": "address",
          "name": "operator",
          "type": "address"
        },
        {
          "internalType": "uint256",
          "name": "tokenId",
          "type": "uint256"
        }
      ],
      "name": "ERC721InsufficientApproval",
      "type": "error"
    },
    {
      "inputs": [
        {
          "internalType": "address",
          "name": "approver",
          "type": "address"
        }
      ],
      "name": "ERC721InvalidApprover",
      "type": "error"
    },
    {
      "inputs": [
        {
          "internalType": "address",
          "name": "operator",
          "type": "address"
        }
      ],
      "name": "ERC721InvalidOperator",
      "type": "error"
    },
    {
      "inputs": [
        {
          "internalType": "address",
          "name": "owner",
          "type": "address"
        }
      ],
      "name": "ERC721InvalidOwner",
      "type": "error"
    },
    {
      "inputs": [
        {
          "internalType": "address",
          "name": "receiver",
          "type": "address"
        }
      ],
      "name": "ERC721InvalidReceiver",
      "type": "error"
    },
    {
      "inputs": [
        {
          "internalType": "address",
          "name": "sender",
          "type": "address"
        }
      ],
      "name": "ERC721InvalidSender",
      "type": "error"
    },
    {
      "inputs": [
        {
          "internalType": "uint256",
          "name": "tokenId",
          "type": "uint256"
        }
      ],
      "name": "ERC721NonexistentToken",
      "type": "error"
    },
    {
      "anonymous": false,
      "inputs": [
        {
          "indexed": true,
          "internalType": "address",
          "name": "owner",
          "type": "address"
        },
        {
          "indexed": true,
          "internalType": "address",
          "name": "approved",
          "type": "address"
        },
        {
          "indexed": true,
          "internalType": "uint256",
          "name": "tokenId",
          "type": "uint256"
        }
      ],
      "name": "Approval",
      "type": "event"
    },
    {
      "anonymous": false,
      "inputs": [
        {
          "indexed": true,
          "internalType": "address",
          "name": "owner",
          "type": "address"
        },
        {
          "indexed": true,
          "internalType": "address",
          "name": "operator",
          "type": "address"
        },
        {
          "indexed": false,
          "internalType": "bool",
          "name": "approved",
          "type": "bool"
        }
      ],
      "name": "ApprovalForAll",
      "type": "event"
    },
    {
      "anonymous": false,
      "inputs": [
        {
          "indexed": false,
          "internalType": "uint256",
          "name": "tokenId",
          "type": "uint256"
        },
        {
          "indexed": false,
          "internalType": "address",
          "name": "student",
          "type": "address"
        },
        {
          "indexed": false,
          "internalType": "string",
          "name": "metadataURI",
          "type": "string"
        }
      ],
      "name": "CredentialCreated",
      "type": "event"
    },
    {
      "anonymous": false,
      "inputs": [
        {
          "indexed": false,
          "internalType": "uint256",
          "name": "tokenId",
          "type": "uint256"
        },
        {
          "indexed": false,
          "internalType": "address",
          "name": "signer",
          "type": "address"
        }
      ],
      "name": "CredentialSigned",
      "type": "event"
    },
    {
      "anonymous": false,
      "inputs": [
        {
          "indexed": false,
          "internalType": "uint256",
          "name": "tokenId",
          "type": "uint256"
        }
      ],
      "name": "CredentialValidated",
      "type": "event"
    },
    {
      "anonymous": false,
      "inputs": [
        {
          "indexed": true,
          "internalType": "bytes32",
          "name": "role",
          "type": "bytes32"
        },
        {
          "indexed": true,
          "internalType": "bytes32",
          "name": "previousAdminRole",
          "type": "bytes32"
        },
        {
          "indexed": true,
          "internalType": "bytes32",
          "name": "newAdminRole",
          "type": "bytes32"
        }
      ],
      "name": "RoleAdminChanged",
      "type": "event"
    },
    {
      "anonymous": false,
      "inputs": [
        {
          "indexed": true,
          "internalType": "bytes32",
          "name": "role",
          "type": "bytes32"
        },
        {
          "indexed": true,
          "internalType": "address",
          "name": "account",
          "type": "address"
        },
        {
          "indexed": true,
          "internalType": "address",
          "name": "sender",
          "type": "address"
        }
      ],
      "name": "RoleGranted",
      "type": "event"
    },
    {
      "anonymous": false,
      "inputs": [
        {
          "indexed": true,
          "internalType": "bytes32",
          "name": "role",
          "type": "bytes32"
        },
        {
          "indexed": true,
          "internalType": "address",
          "name": "account",
          "type": "address"
        },
        {
          "indexed": true,
          "internalType": "address",
          "name": "sender",
          "type": "address"
        }
      ],
      "name": "RoleRevoked",
      "type": "event"
    },
    {
      "anonymous": false,
      "inputs": [
        {
          "indexed": true,
          "internalType": "address",
          "name": "from",
          "type": "address"
        },
        {
          "indexed": true,
          "internalType": "address",
          "name": "to",
          "type": "address"
        },
        {
          "indexed": true,
          "internalType": "uint256",
          "name": "tokenId",
          "type": "uint256"
        }
      ],
      "name": "Transfer",
      "type": "event"
    },
    {
      "inputs": [],
      "name": "DEFAULT_ADMIN_ROLE",
      "outputs": [
        {
          "internalType": "bytes32",
          "name": "",
          "type": "bytes32"
        }
      ],
      "stateMutability": "view",
      "type": "function"
    },
    {
      "inputs": [],
      "name": "ISSUER_ROLE",
      "outputs": [
        {
          "internalType": "bytes32",
          "name": "",
          "type": "bytes32"
        }
      ],
      "stateMutability": "view",
      "type": "function"
    },
    {
      "inputs": [],
      "name": "VALIDATOR_ROLE",
      "outputs": [
        {
          "internalType": "bytes32",
          "name": "",
          "type": "bytes32"
        }
      ],
      "stateMutability": "view",
      "type": "function"
    },
    {
      "inputs": [
        {
          "internalType": "address",
          "name": "to",
          "type": "address"
        },
        {
          "internalType": "uint256",
          "name": "tokenId",
          "type": "uint256"
        }
      ],
      "name": "approve",
      "outputs": [],
      "stateMutability": "nonpayable",
      "type": "function"
    },
    {
      "inputs": [
        {
          "internalType": "address",
          "name": "owner",
          "type": "address"
        }
      ],
      "name": "balanceOf",
      "outputs": [
        {
          "internalType": "uint256",
          "name": "",
          "type": "uint256"
        }
      ],
      "stateMutability": "view",
      "type": "function"
    },
    {
      "inputs": [
        {
          "internalType": "address",
          "name": "student",
          "type": "address"
        },
        {
          "internalType": "string",
          "name": "metadataURI",
          "type": "string"
        },
        {
          "internalType": "uint256",
          "name": "requiredSignatures",
          "type": "uint256"
        }
      ],
      "name": "createCredential",
      "outputs": [
        {
          "internalType": "uint256",
          "name": "",
          "type": "uint256"
        }
      ],
      "stateMutability": "nonpayable",
      "type": "function"
    },
    {
      "inputs": [
        {
          "internalType": "uint256",
          "name": "",
          "type": "uint256"
        }
      ],
      "name": "credentials",
      "outputs": [
        {
          "internalType": "string",
          "name": "metadataURI",
          "type": "string"
        },
        {
          "internalType": "address",
          "name": "student",
          "type": "address"
        },
        {
          "internalType": "uint256",
          "name": "requiredSignatures",
          "type": "uint256"
        },
        {
          "internalType": "bool",
          "name": "isValid",
          "type": "bool"
        },
        {
          "internalType": "uint256",
          "name": "signatureCount",
          "type": "uint256"
        }
      ],
      "stateMutability": "view",
      "type": "function"
    },
    {
      "inputs": [
        {
          "internalType": "uint256",
          "name": "tokenId",
          "type": "uint256"
        }
      ],
      "name": "getApproved",
      "outputs": [
        {
          "internalType": "address",
          "name": "",
          "type": "address"
        }
      ],
      "stateMutability": "view",
      "type": "function"
    },
    {
      "inputs": [
        {
          "internalType": "bytes32",
          "name": "role",
          "type": "bytes32"
        }
      ],
      "name": "getRoleAdmin",
      "outputs": [
        {
          "internalType": "bytes32",
          "name": "",
          "type": "bytes32"
        }
      ],
      "stateMutability": "view",
      "type": "function"
    },
    {
      "inputs": [
        {
          "internalType": "uint256",
          "name": "tokenId",
          "type": "uint256"
        }
      ],
      "name": "getSignatureCount",
      "outputs": [
        {
          "internalType": "uint256",
          "name": "",
          "type": "uint256"
        }
      ],
      "stateMutability": "view",
      "type": "function"
    },
    {
      "inputs": [
        {
          "internalType": "bytes32",
          "name": "role",
          "type": "bytes32"
        },
        {
          "internalType": "address",
          "name": "account",
          "type": "address"
        }
      ],
      "name": "grantRole",
      "outputs": [],
      "stateMutability": "nonpayable",
      "type": "function"
    },
    {
      "inputs": [
        {
          "internalType": "bytes32",
          "name": "role",
          "type": "bytes32"
        },
        {
          "internalType": "address",
          "name": "account",
          "type": "address"
        }
      ],
      "name": "hasRole",
      "outputs": [
        {
          "internalType": "bool",
          "name": "",
          "type": "bool"
        }
      ],
      "stateMutability": "view",
      "type": "function"
    },
    {
      "inputs": [
        {
          "internalType": "address",
          "name": "owner",
          "type": "address"
        },
        {
          "internalType": "address",
          "name": "operator",
          "type": "address"
        }
      ],
      "name": "isApprovedForAll",
      "outputs": [
        {
          "internalType": "bool",
          "name": "",
          "type": "bool"
        }
      ],
      "stateMutability": "view",
      "type": "function"
    },
    {
      "inputs": [
        {
          "internalType": "uint256",
          "name": "tokenId",
          "type": "uint256"
        }
      ],
      "name": "isCredentialValid",
      "outputs": [
        {
          "internalType": "bool",
          "name": "",
          "type": "bool"
        }
      ],
      "stateMutability": "view",
      "type": "function"
    },
    {
      "inputs": [],
      "name": "name",
      "outputs": [
        {
          "internalType": "string",
          "name": "",
          "type": "string"
        }
      ],
      "stateMutability": "view",
      "type": "function"
    },
    {
      "inputs": [
        {
          "internalType": "uint256",
          "name": "tokenId",
          "type": "uint256"
        }
      ],
      "name": "ownerOf",
      "outputs": [
        {
          "internalType": "address",
          "name": "",
          "type": "address"
        }
      ],
      "stateMutability": "view",
      "type": "function"
    },
    {
      "inputs": [
        {
          "internalType": "bytes32",
          "name": "role",
          "type": "bytes32"
        },
        {
          "internalType": "address",
          "name": "callerConfirmation",
          "type": "address"
        }
      ],
      "name": "renounceRole",
      "outputs": [],
      "stateMutability": "nonpayable",
      "type": "function"
    },
    {
      "inputs": [
        {
          "internalType": "bytes32",
          "name": "role",
          "type": "bytes32"
        },
        {
          "internalType": "address",
          "name": "account",
          "type": "address"
        }
      ],
      "name": "revokeRole",
      "outputs": [],
      "stateMutability": "nonpayable",
      "type": "function"
    },
    {
      "inputs": [
        {
          "internalType": "address",
          "name": "from",
          "type": "address"
        },
        {
          "internalType": "address",
          "name": "to",
          "type": "address"
        },
        {
          "internalType": "uint256",
          "name": "tokenId",
          "type": "uint256"
        }
      ],
      "name": "safeTransferFrom",
      "outputs": [],
      "stateMutability": "nonpayable",
      "type": "function"
    },
    {
      "inputs": [
        {
          "internalType": "address",
          "name": "from",
          "type": "address"
        },
        {
          "internalType": "address",
          "name": "to",
          "type": "address"
        },
        {
          "internalType": "uint256",
          "name": "tokenId",
          "type": "uint256"
        },
        {
          "internalType": "bytes",
          "name": "data",
          "type": "bytes"
        }
      ],
      "name": "safeTransferFrom",
      "outputs": [],
      "stateMutability": "nonpayable",
      "type": "function"
    },
    {
      "inputs": [
        {
          "internalType": "address",
          "name": "operator",
          "type": "address"
        },
        {
          "internalType": "bool",
          "name": "approved",
          "type": "bool"
        }
      ],
      "name": "setApprovalForAll",
      "outputs": [],
      "stateMutability": "nonpayable",
      "type": "function"
    },
    {
      "inputs": [
        {
          "internalType": "uint256",
          "name": "tokenId",
          "type": "uint256"
        }
      ],
      "name": "signCredential",
      "outputs": [],
      "stateMutability": "nonpayable",
      "type": "function"
    },
    {
      "inputs": [
        {
          "internalType": "bytes4",
          "name": "interfaceId",
          "type": "bytes4"
        }
      ],
      "name": "supportsInterface",
      "outputs": [
        {
          "internalType": "bool",
          "name": "",
          "type": "bool"
        }
      ],
      "stateMutability": "view",
      "type": "function"
    },
    {
      "inputs": [],
      "name": "symbol",
      "outputs": [
        {
          "internalType": "string",
          "name": "",
          "type": "string"
        }
      ],
      "stateMutability": "view",
      "type": "function"
    },
    {
      "inputs": [
        {
          "internalType": "uint256",
          "name": "tokenId",
          "type": "uint256"
        }
      ],
      "name": "tokenURI",
      "outputs": [
        {
          "internalType": "string",
          "name": "",
          "type": "string"
        }
      ],
      "stateMutability": "view",
      "type": "function"
    },
    {
      "inputs": [
        {
          "internalType": "address",
          "name": "from",
          "type": "address"
        },
        {
          "internalType": "address",
          "name": "to",
          "type": "address"
        },
        {
          "internalType": "uint256",
          "name": "tokenId",
          "type": "uint256"
        }
      ],
      "name": "transferFrom",
      "outputs": [],
      "stateMutability": "nonpayable",
      "type": "function"
    }
  ],
  "bytecode": "0x608060405234801561001057600080fd5b506040518060400160405280601681526020017f456475636174696f6e616c2043726564656e7469616c000000000000000000008152506040518060400160405280600381526020016245445560e81b815250816000908161007291906101e4565b50600161007f82826101e4565b5061008f91506000905033610095565b506102a2565b60008281526006602090815260408083206001600160a01b038516845290915281205460ff1661013b5760008381526006602090815260408083206001600160a01b03861684529091529020805460ff191660011790556100f33390565b6001600160a01b0316826001600160a01b0316847f2f8788117e7eff1d82e926ec794901d17c78024a50270940304540a733656f0d60405160405180910390a450600161013f565b5060005b92915050565b634e487b7160e01b600052604160045260246000fd5b600181811c9082168061016f57607f821691505b60208210810361018f57634e487b7160e01b600052602260045260246000fd5b50919050565b601f8211156101df57806000526020600020601f840160051c810160208510156101bc5750805b601f840160051c820191505b818110156101dc57600081556001016101c8565b50505b505050565b81516001600160401b038111156101fd576101fd610145565b6102118161020b845461015b565b84610195565b6020601f821160018114610245576000831561022d5750848201515b600019600385901b1c1916600184901b1784556101dc565b600084815260208120601f198516915b828110156102755787850151825560209485019460019092019101610255565b50848210156102935786840151600019600387901b60f8161c191681555b50505050600190811b01905550565b611882806102b16000396000f3fe608060405234801561001057600080fd5b506004361061018e5760003560e01c80637219627f116100de578063a22cb46511610097578063c87b56dd11610071578063c87b56dd146103b9578063d547741f146103cc578063e0574e3f146103df578063e985e9c51461040357600080fd5b8063a22cb4651461036c578063b88d4fde1461037f578063c49baebe1461039257600080fd5b80637219627f146102ec5780637743007d146102ff57806382aefa241461032257806391d148541461034957806395d89b411461035c578063a217fddf1461036457600080fd5b80632f2ff15d1161014b5780634b95b841116101255780634b95b8411461028d5780636352211e146102a05780636da48b9a146102b357806370a08231146102d957600080fd5b80632f2ff15d1461025457806336568abe1461026757806342842e0e1461027a57600080fd5b806301ffc9a71461019357806306fdde03146101bb578063081812fc146101d0578063095ea7b3146101fb57806323b872dd14610210578063248a9ca314610223575b600080fd5b6101a66101a13660046112da565b610416565b60405190151581526020015b60405180910390f35b6101c3610427565b6040516101b29190611344565b6101e36101de366004611357565b6104b9565b6040516001600160a01b0390911681526020016101b2565b61020e61020936600461138c565b6104e2565b005b61020e61021e3660046113b6565b6104f1565b610246610231366004611357565b60009081526006602052604090206001015490565b6040519081526020016101b2565b61020e6102623660046113f3565b610581565b61020e6102753660046113f3565b6105a6565b61020e6102883660046113b6565b6105de565b61020e61029b366004611357565b6105f9565b6101e36102ae366004611357565b6107c6565b6101a66102c1366004611357565b60009081526008602052604090206004015460ff1690565b6102466102e736600461141f565b6107d1565b6102466102fa3660046114ca565b610819565b61024661030d366004611357565b60009081526008602052604090206005015490565b6102467f114e74f6ea3bd819998f78687bfcb11b140da08e9b7d222fa9c1f1ba1f2aa12281565b6101a66103573660046113f3565b61095b565b6101c3610986565b610246600081565b61020e61037a366004611536565b610995565b61020e61038d366004611572565b6109a0565b6102467f21702c8af46127c7fa207f89d0b0a8441bb32959a0ac7df790e9ab1a25c9892681565b6101c36103c7366004611357565b6109b8565b61020e6103da3660046113f3565b610ab0565b6103f26103ed366004611357565b610ad5565b6040516101b29594939291906115ee565b6101a661041136600461162e565b610b9c565b600061042182610bca565b92915050565b60606000805461043690611658565b80601f016020809104026020016040519081016040528092919081815260200182805461046290611658565b80156104af5780601f10610484576101008083540402835291602001916104af565b820191906000526020600020905b81548152906001019060200180831161049257829003601f168201915b5050505050905090565b60006104c482610bef565b506000828152600460205260409020546001600160a01b0316610421565b6104ed828233610c28565b5050565b6001600160a01b03821661052057604051633250574960e11b8152600060048201526024015b60405180910390fd5b600061052d838333610c35565b9050836001600160a01b0316816001600160a01b03161461057b576040516364283d7b60e01b81526001600160a01b0380861660048301526024820184905282166044820152606401610517565b50505050565b60008281526006602052604090206001015461059c81610d2e565b61057b8383610d3b565b6001600160a01b03811633146105cf5760405163334bd91960e11b815260040160405180910390fd5b6105d98282610dcf565b505050565b6105d9838383604051806020016040528060008152506109a0565b7f21702c8af46127c7fa207f89d0b0a8441bb32959a0ac7df790e9ab1a25c9892661062381610d2e565b6000828152600860205260409020600481015460ff16156106865760405162461bcd60e51b815260206004820152601c60248201527f43726564656e7469616c20616c72656164792076616c696461746564000000006044820152606401610517565b33600090815260038201602052604090205460ff16156106e85760405162461bcd60e51b815260206004820181905260248201527f416c7265616479207369676e656420627920746869732076616c696461746f726044820152606401610517565b3360009081526003820160205260408120805460ff191660011790556005820180549161071483611692565b9091555050604080518481523360208201527fa3216ab4bd41d23d4040a0fabdc344a7fad82019cd07f3682e35caf4c51c2799910160405180910390a180600201548160050154106105d9576001810154610778906001600160a01b031684610e3c565b60048101805460ff191660011790556040517fe14736734b13a110b90407151a264cd99161d0f72ef06a64a3d4d3f585011f1c906107b99085815260200190565b60405180910390a1505050565b600061042182610bef565b60006001600160a01b0382166107fd576040516322718ad960e21b815260006004820152602401610517565b506001600160a01b031660009081526003602052604090205490565b60007f114e74f6ea3bd819998f78687bfcb11b140da08e9b7d222fa9c1f1ba1f2aa12261084581610d2e565b600083116108a85760405162461bcd60e51b815260206004820152602a60248201527f5265717569726564207369676e617475726573206d75737420626520677265616044820152690746572207468616e20360b41b6064820152608401610517565b6108b6600780546001019055565b60006108c160075490565b6000818152600860205260409020909150806108dd8782611700565b506001810180546001600160a01b0319166001600160a01b0389161790556002810185905560048101805460ff19169055600060058201556040517f8628451523bb8a8b1ab7a801bcebb8ab51520874cb5f6d69b1ee4ae42a9da10b906109499084908a908a906117bf565b60405180910390a15095945050505050565b60009182526006602090815260408084206001600160a01b0393909316845291905290205460ff1690565b60606001805461043690611658565b6104ed338383610ea1565b6109ab8484846104f1565b61057b3385858585610f40565b606060006109c5836107c6565b6001600160a01b031603610a125760405162461bcd60e51b8152602060048201526014602482015273151bdad95b88191bd95cc81b9bdd08195e1a5cdd60621b6044820152606401610517565b60008281526008602052604090208054610a2b90611658565b80601f0160208091040260200160405190810160405280929190818152602001828054610a5790611658565b8015610aa45780601f10610a7957610100808354040283529160200191610aa4565b820191906000526020600020905b815481529060010190602001808311610a8757829003601f168201915b50505050509050919050565b600082815260066020526040902060010154610acb81610d2e565b61057b8383610dcf565b600860205260009081526040902080548190610af090611658565b80601f0160208091040260200160405190810160405280929190818152602001828054610b1c90611658565b8015610b695780601f10610b3e57610100808354040283529160200191610b69565b820191906000526020600020905b815481529060010190602001808311610b4c57829003601f168201915b50505060018401546002850154600486015460059096015494956001600160a01b039092169490935060ff909116915085565b6001600160a01b03918216600090815260056020908152604080832093909416825291909152205460ff1690565b60006001600160e01b03198216637965db0b60e01b148061042157506104218261106b565b6000818152600260205260408120546001600160a01b03168061042157604051637e27328960e01b815260048101849052602401610517565b6105d983838360016110bb565b6000828152600260205260408120546001600160a01b0390811690831615610c6257610c628184866111c1565b6001600160a01b03811615610ca057610c7f6000856000806110bb565b6001600160a01b038116600090815260036020526040902080546000190190555b6001600160a01b03851615610ccf576001600160a01b0385166000908152600360205260409020805460010190555b60008481526002602052604080822080546001600160a01b0319166001600160a01b0389811691821790925591518793918516917fddf252ad1be2c89b69c2b068fc378daa952ba7f163c4a11628f55a4df523b3ef91a4949350505050565b610d388133611225565b50565b6000610d47838361095b565b610dc75760008381526006602090815260408083206001600160a01b03861684529091529020805460ff19166001179055610d7f3390565b6001600160a01b0316826001600160a01b0316847f2f8788117e7eff1d82e926ec794901d17c78024a50270940304540a733656f0d60405160405180910390a4506001610421565b506000610421565b6000610ddb838361095b565b15610dc75760008381526006602090815260408083206001600160a01b0386168085529252808320805460ff1916905551339286917ff6391f5c32d9c69d2a47ea670b442974b53935d1edc7fd64eb21e047a839171b9190a4506001610421565b6001600160a01b038216610e6657604051633250574960e11b815260006004820152602401610517565b6000610e7483836000610c35565b90506001600160a01b038116156105d9576040516339e3563760e11b815260006004820152602401610517565b6001600160a01b038216610ed357604051630b61174360e31b81526001600160a01b0383166004820152602401610517565b6001600160a01b03838116600081815260056020908152604080832094871680845294825291829020805460ff191686151590811790915591519182527f17307eab39ab6107e8899845ad3d59bd9653f200f220920489ca2b5937696c31910160405180910390a3505050565b6001600160a01b0383163b1561106457604051630a85bd0160e11b81526001600160a01b0384169063150b7a0290610f829088908890879087906004016117f2565b6020604051808303816000875af1925050508015610fbd575060408051601f3d908101601f19168201909252610fba9181019061182f565b60015b611026573d808015610feb576040519150601f19603f3d011682016040523d82523d6000602084013e610ff0565b606091505b50805160000361101e57604051633250574960e11b81526001600160a01b0385166004820152602401610517565b805181602001fd5b6001600160e01b03198116630a85bd0160e11b1461106257604051633250574960e11b81526001600160a01b0385166004820152602401610517565b505b5050505050565b60006001600160e01b031982166380ac58cd60e01b148061109c57506001600160e01b03198216635b5e139f60e01b145b8061042157506301ffc9a760e01b6001600160e01b0319831614610421565b80806110cf57506001600160a01b03821615155b156111915760006110df84610bef565b90506001600160a01b0383161580159061110b5750826001600160a01b0316816001600160a01b031614155b801561111e575061111c8184610b9c565b155b156111475760405163a9fbf51f60e01b81526001600160a01b0384166004820152602401610517565b811561118f5783856001600160a01b0316826001600160a01b03167f8c5be1e5ebec7d5bd14f71427d1e84f3dd0314c0f7b2291e5b200ac8c7c3b92560405160405180910390a45b505b5050600090815260046020526040902080546001600160a01b0319166001600160a01b0392909216919091179055565b6111cc83838361125e565b6105d9576001600160a01b0383166111fa57604051637e27328960e01b815260048101829052602401610517565b60405163177e802f60e01b81526001600160a01b038316600482015260248101829052604401610517565b61122f828261095b565b6104ed5760405163e2517d3f60e01b81526001600160a01b038216600482015260248101839052604401610517565b60006001600160a01b038316158015906112bc5750826001600160a01b0316846001600160a01b0316148061129857506112988484610b9c565b806112bc57506000828152600460205260409020546001600160a01b038481169116145b949350505050565b6001600160e01b031981168114610d3857600080fd5b6000602082840312156112ec57600080fd5b81356112f7816112c4565b9392505050565b6000815180845260005b8181101561132457602081850181015186830182015201611308565b506000602082860101526020601f19601f83011685010191505092915050565b6020815260006112f760208301846112fe565b60006020828403121561136957600080fd5b5035919050565b80356001600160a01b038116811461138757600080fd5b919050565b6000806040838503121561139f57600080fd5b6113a883611370565b946020939093013593505050565b6000806000606084860312156113cb57600080fd5b6113d484611370565b92506113e260208501611370565b929592945050506040919091013590565b6000806040838503121561140657600080fd5b8235915061141660208401611370565b90509250929050565b60006020828403121561143157600080fd5b6112f782611370565b634e487b7160e01b600052604160045260246000fd5b60008067ffffffffffffffff84111561146b5761146b61143a565b50604051601f19601f85018116603f0116810181811067ffffffffffffffff8211171561149a5761149a61143a565b6040528381529050808284018510156114b257600080fd5b83836020830137600060208583010152509392505050565b6000806000606084860312156114df57600080fd5b6114e884611370565b9250602084013567ffffffffffffffff81111561150457600080fd5b8401601f8101861361151557600080fd5b61152486823560208401611450565b93969395505050506040919091013590565b6000806040838503121561154957600080fd5b61155283611370565b91506020830135801515811461156757600080fd5b809150509250929050565b6000806000806080858703121561158857600080fd5b61159185611370565b935061159f60208601611370565b925060408501359150606085013567ffffffffffffffff8111156115c257600080fd5b8501601f810187136115d357600080fd5b6115e287823560208401611450565b91505092959194509250565b60a08152600061160160a08301886112fe565b6001600160a01b039690961660208301525060408101939093529015156060830152608090910152919050565b6000806040838503121561164157600080fd5b61164a83611370565b915061141660208401611370565b600181811c9082168061166c57607f821691505b60208210810361168c57634e487b7160e01b600052602260045260246000fd5b50919050565b6000600182016116b257634e487b7160e01b600052601160045260246000fd5b5060010190565b601f8211156105d957806000526020600020601f840160051c810160208510156116e05750805b601f840160051c820191505b8181101561106457600081556001016116ec565b815167ffffffffffffffff81111561171a5761171a61143a565b61172e816117288454611658565b846116b9565b6020601f821160018114611762576000831561174a5750848201515b600019600385901b1c1916600184901b178455611064565b600084815260208120601f198516915b828110156117925787850151825560209485019460019092019101611772565b50848210156117b05786840151600019600387901b60f8161c191681555b50505050600190811b01905550565b8381526001600160a01b03831660208201526060604082018190526000906117e9908301846112fe565b95945050505050565b6001600160a01b0385811682528416602082015260408101839052608060608201819052600090611825908301846112fe565b9695505050505050565b60006020828403121561184157600080fd5b81516112f7816112c456fea2646970667358221220540038dd508695458004888c98f21e4ba1a2574ff5b21edabd3edfa31f2a4e8e64736f6c634300081b0033",
  "linkReferences": {},
  "deployedLinkReferences": {}
}